{
  "contractName": "AdvanceStorage",
  "abi": [
    {
      "inputs": [
        {
          "internalType": "uint256",
          "name": "",
          "type": "uint256"
        }
      ],
      "name": "ids",
      "outputs": [
        {
          "internalType": "uint256",
          "name": "",
          "type": "uint256"
        }
      ],
      "stateMutability": "view",
      "type": "function",
      "constant": true
    },
    {
      "inputs": [
        {
          "internalType": "uint256",
          "name": "_id",
          "type": "uint256"
        }
      ],
      "name": "addId",
      "outputs": [
        {
          "internalType": "bool",
          "name": "",
          "type": "bool"
        }
      ],
      "stateMutability": "nonpayable",
      "type": "function"
    },
    {
      "inputs": [
        {
          "internalType": "uint256",
          "name": "_index",
          "type": "uint256"
        }
      ],
      "name": "getId",
      "outputs": [
        {
          "internalType": "uint256",
          "name": "",
          "type": "uint256"
        }
      ],
      "stateMutability": "view",
      "type": "function",
      "constant": true
    },
    {
      "inputs": [],
      "name": "getAllIds",
      "outputs": [
        {
          "internalType": "uint256[]",
          "name": "",
          "type": "uint256[]"
        }
      ],
      "stateMutability": "view",
      "type": "function",
      "constant": true
    },
    {
      "inputs": [],
      "name": "length",
      "outputs": [
        {
          "internalType": "uint256",
          "name": "",
          "type": "uint256"
        }
      ],
      "stateMutability": "view",
      "type": "function",
      "constant": true
    }
  ],
  "bytecode": "0x608060405234801561001057600080fd5b50610422806100206000396000f3fe608060405234801561001057600080fd5b5060043610610074576000357c0100000000000000000000000000000000000000000000000000000000900480631f7b6d3214610079578063545a153a14610097578063aaa44e5c146100c7578063d0e90e95146100e5578063fac333ac14610115575b600080fd5b610081610145565b60405161008e919061036b565b60405180910390f35b6100b160048036038101906100ac9190610262565b610151565b6040516100be919061036b565b60405180910390f35b6100cf61019e565b6040516100dc919061032e565b60405180910390f35b6100ff60048036038101906100fa9190610262565b6101f6565b60405161010c9190610350565b60405180910390f35b61012f600480360381019061012a9190610262565b610229565b60405161013c919061036b565b60405180910390f35b60008080549050905090565b600080828154811061018c577f4e487b7100000000000000000000000000000000000000000000000000000000600052603260045260246000fd5b90600052602060002001549050919050565b606060008054806020026020016040519081016040528092919081815260200182805480156101ec57602002820191906000526020600020905b8154815260200190600101908083116101d8575b5050505050905090565b60008082908060018154018082558091505060019003906000526020600020016000909190919091505560019050919050565b6000818154811061023957600080fd5b906000526020600020016000915090505481565b60008135905061025c816103d5565b92915050565b60006020828403121561027457600080fd5b60006102828482850161024d565b91505092915050565b60006102978383610310565b60208301905092915050565b60006102ae82610396565b6102b881856103ae565b93506102c383610386565b8060005b838110156102f45781516102db888261028b565b97506102e6836103a1565b9250506001810190506102c7565b5085935050505092915050565b61030a816103bf565b82525050565b610319816103cb565b82525050565b610328816103cb565b82525050565b6000602082019050818103600083015261034881846102a3565b905092915050565b60006020820190506103656000830184610301565b92915050565b6000602082019050610380600083018461031f565b92915050565b6000819050602082019050919050565b600081519050919050565b6000602082019050919050565b600082825260208201905092915050565b60008115159050919050565b6000819050919050565b6103de816103cb565b81146103e957600080fd5b5056fea264697066735822122053f4287e379ed42ed44f213034778956a09a904e60beca51f30d16baf2359e7464736f6c63430008000033",
  "immutableReferences": {},
  "source": "// SPDX-License-Identifier: GPL-3.0\n\npragma solidity >=0.7.0 <0.9.0;\n\ncontract AdvanceStorage {\n    uint256[] public ids;\n\n    function addId(uint256 _id) public returns (bool) {\n        ids.push(_id);\n        return true;\n    }\n\n    function getId(uint256 _index) public view returns (uint256) {\n        return ids[_index];\n    }\n\n    function getAllIds() public view returns (uint256[] memory) {\n        return ids;\n    }\n\n    function length() public view returns (uint256) {\n        return ids.length;\n    }\n}\n",
  "sourcePath": "C:/Users/Laviedegeorge/Documents/Programming/source/web3-dapps/learning-blockchain/contracts/AdvanceStorage.sol",
  "compiler": {
    "name": "solc",
    "version": "0.8.0+commit.c7dfd78e.Emscripten.clang"
  },
  "schemaVersion": "3.4.1",
  "updatedAt": "2021-07-16T20:38:24.158Z",
  "networkType": "ethereum",
  "devdoc": {
    "kind": "dev",
    "methods": {},
    "version": 1
  },
  "userdoc": {
    "kind": "user",
    "methods": {},
    "version": 1
  }
}